:10000000A828A600380884000930A70003100D2096
:10001000A60CA70B072803140D288413B51D1C2854
:1000200000083604351D36068000841700083604A3
:10003000031C36068000272800083604031C3606F9
:100040003519360680008417360980052728350DB6
:100050000639A0003020A100A00A302000004A2864
:1000600000308A00200882070134753403341534C7
:1000700000343C340C34D934A301A200FF30A20771
:10008000031CA307031CA3280330A100DF304A2070
:100090003E28A101E83EA000A109FC30031C532822
:1000A000A00703185028A0076400A10F50282018AB
:1000B0005928A01C5D2800005D280800A200063019
:1000C0006128A80023082102031D682822082002B5
:1000D000043003180130031902302805031DFF30D6
:1000E000A328A501A4011030A600210DA40DA50D83
:1000F0002208A4022308031C230FA5020318872843
:100100002208A40723080318230FA5070310A00D36
:10011000A10DA60B75282008A3281030A800A10166
:10012000A001A70CA60C031C9B282208A0072308EB
:100130000318230FA107A10CA00CA50CA40CA80B5D
:1001400091282408A3288313031383126400080052
:10015000AF210230BA0083213B08A600A7018030FE
:10016000A200A3018D20BB0002303B04C50001307A
:10017000BE00640003303E020318D0280514831625
:10018000051083120130A30090303D200510831626
:10019000051083120130A30090303D20BE0FB92816
:1001A00083160514831264003D08003C031DDB2800
:1001B0000130BD00DC28BD016A2164003C08023C1E
:1001C000031DF02864003D08003C031DE928213090
:1001D000C00064003D08013C031DF028E130C00070
:1001E00064003C08033C031D032964003D08003CF7
:1001F000031DFC281130C00064003D08013C031DB4
:100200000329D130C00064003C08053C031D1629B9
:1002100064003D08003C031D0F29B130C00064009C
:100220003D08013C031D16297130C00064003C08E4
:10023000063C031D292964003D08003C031D2229BA
:100240008130C00064003D08013C031D2929413074
:10025000C0004130C1004130C2004508C300400821
:10026000C3064108C3064208C3060130BE0064004D
:1002700005303E02031864290530B8000130B6008D
:100280000130B500AA300120AA300120AA30012097
:10029000AA30012045080120400801204108012022
:1002A00042080120430801203E08A600A7010A30A9
:1002B000A200A3018D20B2002508B3003308A300DB
:1002C00032083D20BE0F372983160514C83083122B
:1002D0003C20D3286400051970290530BC000800B3
:1002E0006400851A76290230BC0008006400051AF3
:1002F0007C290330BC000800640085188229063080
:10030000BC0008006A29C4010130BF000130BE00F2
:10031000640009303E020318A5293F083A05B200DF
:10032000B3013208A0003308A100A30100305E2011
:10033000031D9B29C40A3F08A600A7010230A200A2
:10034000A3018D20BF00BE0F88294408A000A10191
:100350000230A200A30171202408BB00080007306E
:100360009900831681138514051505168516FE3030
:0E037000950083128316FF239000831208006D
:02400E00FC3F75
:00000001FF
